{
  "_format": "hh-sol-artifact-1",
  "contractName": "RealEstate",
  "sourceName": "contracts/RealEstate.sol",
  "abi": [
    {
      "inputs": [],
      "stateMutability": "nonpayable",
      "type": "constructor"
    },
    {
      "anonymous": false,
      "inputs": [
        {
          "indexed": true,
          "internalType": "address",
          "name": "owner",
          "type": "address"
        },
        {
          "indexed": true,
          "internalType": "address",
          "name": "approved",
          "type": "address"
        },
        {
          "indexed": true,
          "internalType": "uint256",
          "name": "tokenId",
          "type": "uint256"
        }
      ],
      "name": "Approval",
      "type": "event"
    },
    {
      "anonymous": false,
      "inputs": [
        {
          "indexed": true,
          "internalType": "address",
          "name": "owner",
          "type": "address"
        },
        {
          "indexed": true,
          "internalType": "address",
          "name": "operator",
          "type": "address"
        },
        {
          "indexed": false,
          "internalType": "bool",
          "name": "approved",
          "type": "bool"
        }
      ],
      "name": "ApprovalForAll",
      "type": "event"
    },
    {
      "anonymous": false,
      "inputs": [
        {
          "indexed": true,
          "internalType": "address",
          "name": "from",
          "type": "address"
        },
        {
          "indexed": true,
          "internalType": "address",
          "name": "to",
          "type": "address"
        },
        {
          "indexed": true,
          "internalType": "uint256",
          "name": "tokenId",
          "type": "uint256"
        }
      ],
      "name": "Transfer",
      "type": "event"
    },
    {
      "inputs": [
        {
          "internalType": "address",
          "name": "to",
          "type": "address"
        },
        {
          "internalType": "uint256",
          "name": "tokenId",
          "type": "uint256"
        }
      ],
      "name": "approve",
      "outputs": [],
      "stateMutability": "nonpayable",
      "type": "function"
    },
    {
      "inputs": [
        {
          "internalType": "address",
          "name": "owner",
          "type": "address"
        }
      ],
      "name": "balanceOf",
      "outputs": [
        {
          "internalType": "uint256",
          "name": "",
          "type": "uint256"
        }
      ],
      "stateMutability": "view",
      "type": "function"
    },
    {
      "inputs": [
        {
          "internalType": "uint256",
          "name": "tokenId",
          "type": "uint256"
        }
      ],
      "name": "getApproved",
      "outputs": [
        {
          "internalType": "address",
          "name": "",
          "type": "address"
        }
      ],
      "stateMutability": "view",
      "type": "function"
    },
    {
      "inputs": [
        {
          "internalType": "address",
          "name": "owner",
          "type": "address"
        },
        {
          "internalType": "address",
          "name": "operator",
          "type": "address"
        }
      ],
      "name": "isApprovedForAll",
      "outputs": [
        {
          "internalType": "bool",
          "name": "",
          "type": "bool"
        }
      ],
      "stateMutability": "view",
      "type": "function"
    },
    {
      "inputs": [
        {
          "internalType": "address",
          "name": "recipient",
          "type": "address"
        },
        {
          "internalType": "string",
          "name": "tokenURI",
          "type": "string"
        }
      ],
      "name": "mint",
      "outputs": [
        {
          "internalType": "uint256",
          "name": "",
          "type": "uint256"
        }
      ],
      "stateMutability": "nonpayable",
      "type": "function"
    },
    {
      "inputs": [],
      "name": "name",
      "outputs": [
        {
          "internalType": "string",
          "name": "",
          "type": "string"
        }
      ],
      "stateMutability": "view",
      "type": "function"
    },
    {
      "inputs": [
        {
          "internalType": "uint256",
          "name": "tokenId",
          "type": "uint256"
        }
      ],
      "name": "ownerOf",
      "outputs": [
        {
          "internalType": "address",
          "name": "",
          "type": "address"
        }
      ],
      "stateMutability": "view",
      "type": "function"
    },
    {
      "inputs": [
        {
          "internalType": "address",
          "name": "from",
          "type": "address"
        },
        {
          "internalType": "address",
          "name": "to",
          "type": "address"
        },
        {
          "internalType": "uint256",
          "name": "tokenId",
          "type": "uint256"
        }
      ],
      "name": "safeTransferFrom",
      "outputs": [],
      "stateMutability": "nonpayable",
      "type": "function"
    },
    {
      "inputs": [
        {
          "internalType": "address",
          "name": "from",
          "type": "address"
        },
        {
          "internalType": "address",
          "name": "to",
          "type": "address"
        },
        {
          "internalType": "uint256",
          "name": "tokenId",
          "type": "uint256"
        },
        {
          "internalType": "bytes",
          "name": "data",
          "type": "bytes"
        }
      ],
      "name": "safeTransferFrom",
      "outputs": [],
      "stateMutability": "nonpayable",
      "type": "function"
    },
    {
      "inputs": [
        {
          "internalType": "address",
          "name": "operator",
          "type": "address"
        },
        {
          "internalType": "bool",
          "name": "approved",
          "type": "bool"
        }
      ],
      "name": "setApprovalForAll",
      "outputs": [],
      "stateMutability": "nonpayable",
      "type": "function"
    },
    {
      "inputs": [
        {
          "internalType": "bytes4",
          "name": "interfaceId",
          "type": "bytes4"
        }
      ],
      "name": "supportsInterface",
      "outputs": [
        {
          "internalType": "bool",
          "name": "",
          "type": "bool"
        }
      ],
      "stateMutability": "view",
      "type": "function"
    },
    {
      "inputs": [],
      "name": "symbol",
      "outputs": [
        {
          "internalType": "string",
          "name": "",
          "type": "string"
        }
      ],
      "stateMutability": "view",
      "type": "function"
    },
    {
      "inputs": [
        {
          "internalType": "uint256",
          "name": "tokenId",
          "type": "uint256"
        }
      ],
      "name": "tokenURI",
      "outputs": [
        {
          "internalType": "string",
          "name": "",
          "type": "string"
        }
      ],
      "stateMutability": "view",
      "type": "function"
    },
    {
      "inputs": [],
      "name": "totalSupply",
      "outputs": [
        {
          "internalType": "uint256",
          "name": "",
          "type": "uint256"
        }
      ],
      "stateMutability": "view",
      "type": "function"
    },
    {
      "inputs": [
        {
          "internalType": "address",
          "name": "from",
          "type": "address"
        },
        {
          "internalType": "address",
          "name": "to",
          "type": "address"
        },
        {
          "internalType": "uint256",
          "name": "tokenId",
          "type": "uint256"
        }
      ],
      "name": "transferFrom",
      "outputs": [],
      "stateMutability": "nonpayable",
      "type": "function"
    }
  ],
  "bytecode": "0x60806040523480156200001157600080fd5b506040518060400160405280600a81526020017f5265616c457374617465000000000000000000000000000000000000000000008152506040518060400160405280600281526020017f524500000000000000000000000000000000000000000000000000000000000081525081600090816200008f919062000324565b508060019081620000a1919062000324565b5050506200040b565b600081519050919050565b7f4e487b7100000000000000000000000000000000000000000000000000000000600052604160045260246000fd5b7f4e487b7100000000000000000000000000000000000000000000000000000000600052602260045260246000fd5b600060028204905060018216806200012c57607f821691505b602082108103620001425762000141620000e4565b5b50919050565b60008190508160005260206000209050919050565b60006020601f8301049050919050565b600082821b905092915050565b600060088302620001ac7fffffffffffffffffffffffffffffffffffffffffffffffffffffffffffffffff826200016d565b620001b886836200016d565b95508019841693508086168417925050509392505050565b6000819050919050565b6000819050919050565b600062000205620001ff620001f984620001d0565b620001da565b620001d0565b9050919050565b6000819050919050565b6200022183620001e4565b6200023962000230826200020c565b8484546200017a565b825550505050565b600090565b6200025062000241565b6200025d81848462000216565b505050565b5b8181101562000285576200027960008262000246565b60018101905062000263565b5050565b601f821115620002d4576200029e8162000148565b620002a9846200015d565b81016020851015620002b9578190505b620002d1620002c8856200015d565b83018262000262565b50505b505050565b600082821c905092915050565b6000620002f960001984600802620002d9565b1980831691505092915050565b6000620003148383620002e6565b9150826002028217905092915050565b6200032f82620000aa565b67ffffffffffffffff8111156200034b576200034a620000b5565b5b62000357825462000113565b6200036482828562000289565b600060209050601f8311600181146200039c576000841562000387578287015190505b62000393858262000306565b86555062000403565b601f198416620003ac8662000148565b60005b82811015620003d657848901518255600182019150602085019450602081019050620003af565b86831015620003f65784890151620003f2601f891682620002e6565b8355505b6001600288020188555050505b505050505050565b612a71806200041b6000396000f3fe608060405234801561001057600080fd5b50600436106100f55760003560e01c80636352211e11610097578063b88d4fde11610066578063b88d4fde14610284578063c87b56dd146102a0578063d0def521146102d0578063e985e9c514610300576100f5565b80636352211e146101ea57806370a082311461021a57806395d89b411461024a578063a22cb46514610268576100f5565b8063095ea7b3116100d3578063095ea7b31461017857806318160ddd1461019457806323b872dd146101b257806342842e0e146101ce576100f5565b806301ffc9a7146100fa57806306fdde031461012a578063081812fc14610148575b600080fd5b610114600480360381019061010f91906117f0565b610330565b6040516101219190611838565b60405180910390f35b610132610412565b60405161013f91906118e3565b60405180910390f35b610162600480360381019061015d919061193b565b6104a4565b60405161016f91906119a9565b60405180910390f35b610192600480360381019061018d91906119f0565b6104ea565b005b61019c610601565b6040516101a99190611a3f565b60405180910390f35b6101cc60048036038101906101c79190611a5a565b610612565b005b6101e860048036038101906101e39190611a5a565b610672565b005b61020460048036038101906101ff919061193b565b610692565b60405161021191906119a9565b60405180910390f35b610234600480360381019061022f9190611aad565b610743565b6040516102419190611a3f565b60405180910390f35b6102526107fa565b60405161025f91906118e3565b60405180910390f35b610282600480360381019061027d9190611b06565b61088c565b005b61029e60048036038101906102999190611c7b565b6108a2565b005b6102ba60048036038101906102b5919061193b565b610904565b6040516102c791906118e3565b60405180910390f35b6102ea60048036038101906102e59190611d9f565b610a16565b6040516102f79190611a3f565b60405180910390f35b61031a60048036038101906103159190611dfb565b610a4e565b6040516103279190611838565b60405180910390f35b60007f80ac58cd000000000000000000000000000000000000000000000000000000007bffffffffffffffffffffffffffffffffffffffffffffffffffffffff1916827bffffffffffffffffffffffffffffffffffffffffffffffffffffffff191614806103fb57507f5b5e139f000000000000000000000000000000000000000000000000000000007bffffffffffffffffffffffffffffffffffffffffffffffffffffffff1916827bffffffffffffffffffffffffffffffffffffffffffffffffffffffff1916145b8061040b575061040a82610ae2565b5b9050919050565b60606000805461042190611e6a565b80601f016020809104026020016040519081016040528092919081815260200182805461044d90611e6a565b801561049a5780601f1061046f5761010080835404028352916020019161049a565b820191906000526020600020905b81548152906001019060200180831161047d57829003601f168201915b5050505050905090565b60006104af82610b4c565b6004600083815260200190815260200160002060009054906101000a900473ffffffffffffffffffffffffffffffffffffffff169050919050565b60006104f582610692565b90508073ffffffffffffffffffffffffffffffffffffffff168373ffffffffffffffffffffffffffffffffffffffff1603610565576040517f08c379a000000000000000000000000000000000000000000000000000000000815260040161055c90611f0d565b60405180910390fd5b8073ffffffffffffffffffffffffffffffffffffffff16610584610b97565b73ffffffffffffffffffffffffffffffffffffffff1614806105b357506105b2816105ad610b97565b610a4e565b5b6105f2576040517f08c379a00000000000000000000000000000000000000000000000000000000081526004016105e990611f9f565b60405180910390fd5b6105fc8383610b9f565b505050565b600061060d6007610c58565b905090565b61062361061d610b97565b82610c66565b610662576040517f08c379a000000000000000000000000000000000000000000000000000000000815260040161065990612031565b60405180910390fd5b61066d838383610cfb565b505050565b61068d838383604051806020016040528060008152506108a2565b505050565b6000806002600084815260200190815260200160002060009054906101000a900473ffffffffffffffffffffffffffffffffffffffff169050600073ffffffffffffffffffffffffffffffffffffffff168173ffffffffffffffffffffffffffffffffffffffff160361073a576040517f08c379a00000000000000000000000000000000000000000000000000000000081526004016107319061209d565b60405180910390fd5b80915050919050565b60008073ffffffffffffffffffffffffffffffffffffffff168273ffffffffffffffffffffffffffffffffffffffff16036107b3576040517f08c379a00000000000000000000000000000000000000000000000000000000081526004016107aa9061212f565b60405180910390fd5b600360008373ffffffffffffffffffffffffffffffffffffffff1673ffffffffffffffffffffffffffffffffffffffff168152602001908152602001600020549050919050565b60606001805461080990611e6a565b80601f016020809104026020016040519081016040528092919081815260200182805461083590611e6a565b80156108825780601f1061085757610100808354040283529160200191610882565b820191906000526020600020905b81548152906001019060200180831161086557829003601f168201915b5050505050905090565b61089e610897610b97565b8383610f61565b5050565b6108b36108ad610b97565b83610c66565b6108f2576040517f08c379a00000000000000000000000000000000000000000000000000000000081526004016108e990612031565b60405180910390fd5b6108fe848484846110cd565b50505050565b606061090f82610b4c565b600060066000848152602001908152602001600020805461092f90611e6a565b80601f016020809104026020016040519081016040528092919081815260200182805461095b90611e6a565b80156109a85780601f1061097d576101008083540402835291602001916109a8565b820191906000526020600020905b81548152906001019060200180831161098b57829003601f168201915b5050505050905060006109b9611129565b905060008151036109ce578192505050610a11565b600082511115610a035780826040516020016109eb92919061218b565b60405160208183030381529060405292505050610a11565b610a0c84611140565b925050505b919050565b6000610a2260076111a8565b6000610a2e6007610c58565b9050610a3a84826111be565b610a448184611397565b8091505092915050565b6000600560008473ffffffffffffffffffffffffffffffffffffffff1673ffffffffffffffffffffffffffffffffffffffff16815260200190815260200160002060008373ffffffffffffffffffffffffffffffffffffffff1673ffffffffffffffffffffffffffffffffffffffff16815260200190815260200160002060009054906101000a900460ff16905092915050565b60007f01ffc9a7000000000000000000000000000000000000000000000000000000007bffffffffffffffffffffffffffffffffffffffffffffffffffffffff1916827bffffffffffffffffffffffffffffffffffffffffffffffffffffffff1916149050919050565b610b5581611404565b610b94576040517f08c379a0000000000000000000000000000000000000000000000000000000008152600401610b8b9061209d565b60405180910390fd5b50565b600033905090565b816004600083815260200190815260200160002060006101000a81548173ffffffffffffffffffffffffffffffffffffffff021916908373ffffffffffffffffffffffffffffffffffffffff160217905550808273ffffffffffffffffffffffffffffffffffffffff16610c1283610692565b73ffffffffffffffffffffffffffffffffffffffff167f8c5be1e5ebec7d5bd14f71427d1e84f3dd0314c0f7b2291e5b200ac8c7c3b92560405160405180910390a45050565b600081600001549050919050565b600080610c7283610692565b90508073ffffffffffffffffffffffffffffffffffffffff168473ffffffffffffffffffffffffffffffffffffffff161480610cb45750610cb38185610a4e565b5b80610cf257508373ffffffffffffffffffffffffffffffffffffffff16610cda846104a4565b73ffffffffffffffffffffffffffffffffffffffff16145b91505092915050565b8273ffffffffffffffffffffffffffffffffffffffff16610d1b82610692565b73ffffffffffffffffffffffffffffffffffffffff1614610d71576040517f08c379a0000000000000000000000000000000000000000000000000000000008152600401610d6890612221565b60405180910390fd5b600073ffffffffffffffffffffffffffffffffffffffff168273ffffffffffffffffffffffffffffffffffffffff1603610de0576040517f08c379a0000000000000000000000000000000000000000000000000000000008152600401610dd7906122b3565b60405180910390fd5b610deb838383611470565b610df6600082610b9f565b6001600360008573ffffffffffffffffffffffffffffffffffffffff1673ffffffffffffffffffffffffffffffffffffffff1681526020019081526020016000206000828254610e469190612302565b925050819055506001600360008473ffffffffffffffffffffffffffffffffffffffff1673ffffffffffffffffffffffffffffffffffffffff1681526020019081526020016000206000828254610e9d9190612336565b92505081905550816002600083815260200190815260200160002060006101000a81548173ffffffffffffffffffffffffffffffffffffffff021916908373ffffffffffffffffffffffffffffffffffffffff160217905550808273ffffffffffffffffffffffffffffffffffffffff168473ffffffffffffffffffffffffffffffffffffffff167fddf252ad1be2c89b69c2b068fc378daa952ba7f163c4a11628f55a4df523b3ef60405160405180910390a4610f5c838383611475565b505050565b8173ffffffffffffffffffffffffffffffffffffffff168373ffffffffffffffffffffffffffffffffffffffff1603610fcf576040517f08c379a0000000000000000000000000000000000000000000000000000000008152600401610fc6906123b6565b60405180910390fd5b80600560008573ffffffffffffffffffffffffffffffffffffffff1673ffffffffffffffffffffffffffffffffffffffff16815260200190815260200160002060008473ffffffffffffffffffffffffffffffffffffffff1673ffffffffffffffffffffffffffffffffffffffff16815260200190815260200160002060006101000a81548160ff0219169083151502179055508173ffffffffffffffffffffffffffffffffffffffff168373ffffffffffffffffffffffffffffffffffffffff167f17307eab39ab6107e8899845ad3d59bd9653f200f220920489ca2b5937696c31836040516110c09190611838565b60405180910390a3505050565b6110d8848484610cfb565b6110e48484848461147a565b611123576040517f08c379a000000000000000000000000000000000000000000000000000000000815260040161111a90612448565b60405180910390fd5b50505050565b606060405180602001604052806000815250905090565b606061114b82610b4c565b6000611155611129565b9050600081511161117557604051806020016040528060008152506111a0565b8061117f84611601565b60405160200161119092919061218b565b6040516020818303038152906040525b915050919050565b6001816000016000828254019250508190555050565b600073ffffffffffffffffffffffffffffffffffffffff168273ffffffffffffffffffffffffffffffffffffffff160361122d576040517f08c379a0000000000000000000000000000000000000000000000000000000008152600401611224906124b4565b60405180910390fd5b61123681611404565b15611276576040517f08c379a000000000000000000000000000000000000000000000000000000000815260040161126d90612520565b60405180910390fd5b61128260008383611470565b6001600360008473ffffffffffffffffffffffffffffffffffffffff1673ffffffffffffffffffffffffffffffffffffffff16815260200190815260200160002060008282546112d29190612336565b92505081905550816002600083815260200190815260200160002060006101000a81548173ffffffffffffffffffffffffffffffffffffffff021916908373ffffffffffffffffffffffffffffffffffffffff160217905550808273ffffffffffffffffffffffffffffffffffffffff16600073ffffffffffffffffffffffffffffffffffffffff167fddf252ad1be2c89b69c2b068fc378daa952ba7f163c4a11628f55a4df523b3ef60405160405180910390a461139360008383611475565b5050565b6113a082611404565b6113df576040517f08c379a00000000000000000000000000000000000000000000000000000000081526004016113d6906125b2565b60405180910390fd5b806006600084815260200190815260200160002090816113ff919061277e565b505050565b60008073ffffffffffffffffffffffffffffffffffffffff166002600084815260200190815260200160002060009054906101000a900473ffffffffffffffffffffffffffffffffffffffff1673ffffffffffffffffffffffffffffffffffffffff1614159050919050565b505050565b505050565b600061149b8473ffffffffffffffffffffffffffffffffffffffff16611761565b156115f4578373ffffffffffffffffffffffffffffffffffffffff1663150b7a026114c4610b97565b8786866040518563ffffffff1660e01b81526004016114e694939291906128a5565b6020604051808303816000875af192505050801561152257506040513d601f19601f8201168201806040525081019061151f9190612906565b60015b6115a4573d8060008114611552576040519150601f19603f3d011682016040523d82523d6000602084013e611557565b606091505b50600081510361159c576040517f08c379a000000000000000000000000000000000000000000000000000000000815260040161159390612448565b60405180910390fd5b805181602001fd5b63150b7a0260e01b7bffffffffffffffffffffffffffffffffffffffffffffffffffffffff1916817bffffffffffffffffffffffffffffffffffffffffffffffffffffffff1916149150506115f9565b600190505b949350505050565b606060008203611648576040518060400160405280600181526020017f3000000000000000000000000000000000000000000000000000000000000000815250905061175c565b600082905060005b6000821461167a57808061166390612933565b915050600a8261167391906129aa565b9150611650565b60008167ffffffffffffffff81111561169657611695611b50565b5b6040519080825280601f01601f1916602001820160405280156116c85781602001600182028036833780820191505090505b5090505b60008514611755576001826116e19190612302565b9150600a856116f091906129db565b60306116fc9190612336565b60f81b81838151811061171257611711612a0c565b5b60200101907effffffffffffffffffffffffffffffffffffffffffffffffffffffffffffff1916908160001a905350600a8561174e91906129aa565b94506116cc565b8093505050505b919050565b6000808273ffffffffffffffffffffffffffffffffffffffff163b119050919050565b6000604051905090565b600080fd5b600080fd5b60007fffffffff0000000000000000000000000000000000000000000000000000000082169050919050565b6117cd81611798565b81146117d857600080fd5b50565b6000813590506117ea816117c4565b92915050565b6000602082840312156118065761180561178e565b5b6000611814848285016117db565b91505092915050565b60008115159050919050565b6118328161181d565b82525050565b600060208201905061184d6000830184611829565b92915050565b600081519050919050565b600082825260208201905092915050565b60005b8381101561188d578082015181840152602081019050611872565b60008484015250505050565b6000601f19601f8301169050919050565b60006118b582611853565b6118bf818561185e565b93506118cf81856020860161186f565b6118d881611899565b840191505092915050565b600060208201905081810360008301526118fd81846118aa565b905092915050565b6000819050919050565b61191881611905565b811461192357600080fd5b50565b6000813590506119358161190f565b92915050565b6000602082840312156119515761195061178e565b5b600061195f84828501611926565b91505092915050565b600073ffffffffffffffffffffffffffffffffffffffff82169050919050565b600061199382611968565b9050919050565b6119a381611988565b82525050565b60006020820190506119be600083018461199a565b92915050565b6119cd81611988565b81146119d857600080fd5b50565b6000813590506119ea816119c4565b92915050565b60008060408385031215611a0757611a0661178e565b5b6000611a15858286016119db565b9250506020611a2685828601611926565b9150509250929050565b611a3981611905565b82525050565b6000602082019050611a546000830184611a30565b92915050565b600080600060608486031215611a7357611a7261178e565b5b6000611a81868287016119db565b9350506020611a92868287016119db565b9250506040611aa386828701611926565b9150509250925092565b600060208284031215611ac357611ac261178e565b5b6000611ad1848285016119db565b91505092915050565b611ae38161181d565b8114611aee57600080fd5b50565b600081359050611b0081611ada565b92915050565b60008060408385031215611b1d57611b1c61178e565b5b6000611b2b858286016119db565b9250506020611b3c85828601611af1565b9150509250929050565b600080fd5b600080fd5b7f4e487b7100000000000000000000000000000000000000000000000000000000600052604160045260246000fd5b611b8882611899565b810181811067ffffffffffffffff82111715611ba757611ba6611b50565b5b80604052505050565b6000611bba611784565b9050611bc68282611b7f565b919050565b600067ffffffffffffffff821115611be657611be5611b50565b5b611bef82611899565b9050602081019050919050565b82818337600083830152505050565b6000611c1e611c1984611bcb565b611bb0565b905082815260208101848484011115611c3a57611c39611b4b565b5b611c45848285611bfc565b509392505050565b600082601f830112611c6257611c61611b46565b5b8135611c72848260208601611c0b565b91505092915050565b60008060008060808587031215611c9557611c9461178e565b5b6000611ca3878288016119db565b9450506020611cb4878288016119db565b9350506040611cc587828801611926565b925050606085013567ffffffffffffffff811115611ce657611ce5611793565b5b611cf287828801611c4d565b91505092959194509250565b600067ffffffffffffffff821115611d1957611d18611b50565b5b611d2282611899565b9050602081019050919050565b6000611d42611d3d84611cfe565b611bb0565b905082815260208101848484011115611d5e57611d5d611b4b565b5b611d69848285611bfc565b509392505050565b600082601f830112611d8657611d85611b46565b5b8135611d96848260208601611d2f565b91505092915050565b60008060408385031215611db657611db561178e565b5b6000611dc4858286016119db565b925050602083013567ffffffffffffffff811115611de557611de4611793565b5b611df185828601611d71565b9150509250929050565b60008060408385031215611e1257611e1161178e565b5b6000611e20858286016119db565b9250506020611e31858286016119db565b9150509250929050565b7f4e487b7100000000000000000000000000000000000000000000000000000000600052602260045260246000fd5b60006002820490506001821680611e8257607f821691505b602082108103611e9557611e94611e3b565b5b50919050565b7f4552433732313a20617070726f76616c20746f2063757272656e74206f776e6560008201527f7200000000000000000000000000000000000000000000000000000000000000602082015250565b6000611ef760218361185e565b9150611f0282611e9b565b604082019050919050565b60006020820190508181036000830152611f2681611eea565b9050919050565b7f4552433732313a20617070726f76652063616c6c6572206973206e6f7420746f60008201527f6b656e206f776e6572206e6f7220617070726f76656420666f7220616c6c0000602082015250565b6000611f89603e8361185e565b9150611f9482611f2d565b604082019050919050565b60006020820190508181036000830152611fb881611f7c565b9050919050565b7f4552433732313a2063616c6c6572206973206e6f7420746f6b656e206f776e6560008201527f72206e6f7220617070726f766564000000000000000000000000000000000000602082015250565b600061201b602e8361185e565b915061202682611fbf565b604082019050919050565b6000602082019050818103600083015261204a8161200e565b9050919050565b7f4552433732313a20696e76616c696420746f6b656e2049440000000000000000600082015250565b600061208760188361185e565b915061209282612051565b602082019050919050565b600060208201905081810360008301526120b68161207a565b9050919050565b7f4552433732313a2061646472657373207a65726f206973206e6f74206120766160008201527f6c6964206f776e65720000000000000000000000000000000000000000000000602082015250565b600061211960298361185e565b9150612124826120bd565b604082019050919050565b600060208201905081810360008301526121488161210c565b9050919050565b600081905092915050565b600061216582611853565b61216f818561214f565b935061217f81856020860161186f565b80840191505092915050565b6000612197828561215a565b91506121a3828461215a565b91508190509392505050565b7f4552433732313a207472616e736665722066726f6d20696e636f72726563742060008201527f6f776e6572000000000000000000000000000000000000000000000000000000602082015250565b600061220b60258361185e565b9150612216826121af565b604082019050919050565b6000602082019050818103600083015261223a816121fe565b9050919050565b7f4552433732313a207472616e7366657220746f20746865207a65726f2061646460008201527f7265737300000000000000000000000000000000000000000000000000000000602082015250565b600061229d60248361185e565b91506122a882612241565b604082019050919050565b600060208201905081810360008301526122cc81612290565b9050919050565b7f4e487b7100000000000000000000000000000000000000000000000000000000600052601160045260246000fd5b600061230d82611905565b915061231883611905565b92508282039050818111156123305761232f6122d3565b5b92915050565b600061234182611905565b915061234c83611905565b9250828201905080821115612364576123636122d3565b5b92915050565b7f4552433732313a20617070726f766520746f2063616c6c657200000000000000600082015250565b60006123a060198361185e565b91506123ab8261236a565b602082019050919050565b600060208201905081810360008301526123cf81612393565b9050919050565b7f4552433732313a207472616e7366657220746f206e6f6e20455243373231526560008201527f63656976657220696d706c656d656e7465720000000000000000000000000000602082015250565b600061243260328361185e565b915061243d826123d6565b604082019050919050565b6000602082019050818103600083015261246181612425565b9050919050565b7f4552433732313a206d696e7420746f20746865207a65726f2061646472657373600082015250565b600061249e60208361185e565b91506124a982612468565b602082019050919050565b600060208201905081810360008301526124cd81612491565b9050919050565b7f4552433732313a20746f6b656e20616c7265616479206d696e74656400000000600082015250565b600061250a601c8361185e565b9150612515826124d4565b602082019050919050565b60006020820190508181036000830152612539816124fd565b9050919050565b7f45524337323155524953746f726167653a2055524920736574206f66206e6f6e60008201527f6578697374656e7420746f6b656e000000000000000000000000000000000000602082015250565b600061259c602e8361185e565b91506125a782612540565b604082019050919050565b600060208201905081810360008301526125cb8161258f565b9050919050565b60008190508160005260206000209050919050565b60006020601f8301049050919050565b600082821b905092915050565b6000600883026126347fffffffffffffffffffffffffffffffffffffffffffffffffffffffffffffffff826125f7565b61263e86836125f7565b95508019841693508086168417925050509392505050565b6000819050919050565b600061267b61267661267184611905565b612656565b611905565b9050919050565b6000819050919050565b61269583612660565b6126a96126a182612682565b848454612604565b825550505050565b600090565b6126be6126b1565b6126c981848461268c565b505050565b5b818110156126ed576126e26000826126b6565b6001810190506126cf565b5050565b601f82111561273257612703816125d2565b61270c846125e7565b8101602085101561271b578190505b61272f612727856125e7565b8301826126ce565b50505b505050565b600082821c905092915050565b600061275560001984600802612737565b1980831691505092915050565b600061276e8383612744565b9150826002028217905092915050565b61278782611853565b67ffffffffffffffff8111156127a05761279f611b50565b5b6127aa8254611e6a565b6127b58282856126f1565b600060209050601f8311600181146127e857600084156127d6578287015190505b6127e08582612762565b865550612848565b601f1984166127f6866125d2565b60005b8281101561281e578489015182556001820191506020850194506020810190506127f9565b8683101561283b5784890151612837601f891682612744565b8355505b6001600288020188555050505b505050505050565b600081519050919050565b600082825260208201905092915050565b600061287782612850565b612881818561285b565b935061289181856020860161186f565b61289a81611899565b840191505092915050565b60006080820190506128ba600083018761199a565b6128c7602083018661199a565b6128d46040830185611a30565b81810360608301526128e6818461286c565b905095945050505050565b600081519050612900816117c4565b92915050565b60006020828403121561291c5761291b61178e565b5b600061292a848285016128f1565b91505092915050565b600061293e82611905565b91507fffffffffffffffffffffffffffffffffffffffffffffffffffffffffffffffff82036129705761296f6122d3565b5b600182019050919050565b7f4e487b7100000000000000000000000000000000000000000000000000000000600052601260045260246000fd5b60006129b582611905565b91506129c083611905565b9250826129d0576129cf61297b565b5b828204905092915050565b60006129e682611905565b91506129f183611905565b925082612a0157612a0061297b565b5b828206905092915050565b7f4e487b7100000000000000000000000000000000000000000000000000000000600052603260045260246000fdfea2646970667358221220de6061aaf4cc27874093f1ca4dbc5f04b3122f51acfc17ec67d968f1ecc1e55864736f6c63430008110033",
  "linkReferences": {},
  "deployedLinkReferences": {}
}